{
  "_format": "hh3-artifact-1",
  "contractName": "MockPriceFeed",
  "sourceName": "contracts/MockPriceFeed.sol",
  "abi": [
    {
      "inputs": [
        {
          "internalType": "string",
          "name": "_description",
          "type": "string"
        },
        {
          "internalType": "uint8",
          "name": "_decimals",
          "type": "uint8"
        },
        {
          "internalType": "int256",
          "name": "_initialAnswer",
          "type": "int256"
        },
        {
          "internalType": "address",
          "name": "_owner",
          "type": "address"
        }
      ],
      "stateMutability": "nonpayable",
      "type": "constructor"
    },
    {
      "inputs": [
        {
          "internalType": "address",
          "name": "owner",
          "type": "address"
        }
      ],
      "name": "OwnableInvalidOwner",
      "type": "error"
    },
    {
      "inputs": [
        {
          "internalType": "address",
          "name": "account",
          "type": "address"
        }
      ],
      "name": "OwnableUnauthorizedAccount",
      "type": "error"
    },
    {
      "anonymous": false,
      "inputs": [
        {
          "indexed": true,
          "internalType": "int256",
          "name": "current",
          "type": "int256"
        },
        {
          "indexed": true,
          "internalType": "uint256",
          "name": "roundId",
          "type": "uint256"
        },
        {
          "indexed": false,
          "internalType": "uint256",
          "name": "updatedAt",
          "type": "uint256"
        }
      ],
      "name": "AnswerUpdated",
      "type": "event"
    },
    {
      "anonymous": false,
      "inputs": [
        {
          "indexed": true,
          "internalType": "uint256",
          "name": "roundId",
          "type": "uint256"
        },
        {
          "indexed": true,
          "internalType": "address",
          "name": "startedBy",
          "type": "address"
        },
        {
          "indexed": false,
          "internalType": "uint256",
          "name": "startedAt",
          "type": "uint256"
        }
      ],
      "name": "NewRound",
      "type": "event"
    },
    {
      "anonymous": false,
      "inputs": [
        {
          "indexed": true,
          "internalType": "address",
          "name": "previousOwner",
          "type": "address"
        },
        {
          "indexed": true,
          "internalType": "address",
          "name": "newOwner",
          "type": "address"
        }
      ],
      "name": "OwnershipTransferred",
      "type": "event"
    },
    {
      "inputs": [],
      "name": "decimals",
      "outputs": [
        {
          "internalType": "uint8",
          "name": "",
          "type": "uint8"
        }
      ],
      "stateMutability": "view",
      "type": "function"
    },
    {
      "inputs": [],
      "name": "description",
      "outputs": [
        {
          "internalType": "string",
          "name": "",
          "type": "string"
        }
      ],
      "stateMutability": "view",
      "type": "function"
    },
    {
      "inputs": [
        {
          "internalType": "uint256",
          "name": "_roundId",
          "type": "uint256"
        }
      ],
      "name": "getAnswer",
      "outputs": [
        {
          "internalType": "int256",
          "name": "",
          "type": "int256"
        }
      ],
      "stateMutability": "view",
      "type": "function"
    },
    {
      "inputs": [
        {
          "internalType": "uint80",
          "name": "_roundId",
          "type": "uint80"
        }
      ],
      "name": "getRoundData",
      "outputs": [
        {
          "internalType": "uint80",
          "name": "roundId",
          "type": "uint80"
        },
        {
          "internalType": "int256",
          "name": "answer",
          "type": "int256"
        },
        {
          "internalType": "uint256",
          "name": "startedAt",
          "type": "uint256"
        },
        {
          "internalType": "uint256",
          "name": "updatedAt",
          "type": "uint256"
        },
        {
          "internalType": "uint80",
          "name": "answeredInRound",
          "type": "uint80"
        }
      ],
      "stateMutability": "view",
      "type": "function"
    },
    {
      "inputs": [
        {
          "internalType": "uint256",
          "name": "_roundId",
          "type": "uint256"
        }
      ],
      "name": "getTimestamp",
      "outputs": [
        {
          "internalType": "uint256",
          "name": "",
          "type": "uint256"
        }
      ],
      "stateMutability": "view",
      "type": "function"
    },
    {
      "inputs": [],
      "name": "latestAnswer",
      "outputs": [
        {
          "internalType": "int256",
          "name": "",
          "type": "int256"
        }
      ],
      "stateMutability": "view",
      "type": "function"
    },
    {
      "inputs": [],
      "name": "latestRound",
      "outputs": [
        {
          "internalType": "uint256",
          "name": "",
          "type": "uint256"
        }
      ],
      "stateMutability": "view",
      "type": "function"
    },
    {
      "inputs": [],
      "name": "latestRoundData",
      "outputs": [
        {
          "internalType": "uint80",
          "name": "roundId",
          "type": "uint80"
        },
        {
          "internalType": "int256",
          "name": "answer",
          "type": "int256"
        },
        {
          "internalType": "uint256",
          "name": "startedAt",
          "type": "uint256"
        },
        {
          "internalType": "uint256",
          "name": "updatedAt",
          "type": "uint256"
        },
        {
          "internalType": "uint80",
          "name": "answeredInRound",
          "type": "uint80"
        }
      ],
      "stateMutability": "view",
      "type": "function"
    },
    {
      "inputs": [],
      "name": "latestTimestamp",
      "outputs": [
        {
          "internalType": "uint256",
          "name": "",
          "type": "uint256"
        }
      ],
      "stateMutability": "view",
      "type": "function"
    },
    {
      "inputs": [],
      "name": "owner",
      "outputs": [
        {
          "internalType": "address",
          "name": "",
          "type": "address"
        }
      ],
      "stateMutability": "view",
      "type": "function"
    },
    {
      "inputs": [],
      "name": "renounceOwnership",
      "outputs": [],
      "stateMutability": "nonpayable",
      "type": "function"
    },
    {
      "inputs": [
        {
          "internalType": "address",
          "name": "newOwner",
          "type": "address"
        }
      ],
      "name": "transferOwnership",
      "outputs": [],
      "stateMutability": "nonpayable",
      "type": "function"
    },
    {
      "inputs": [
        {
          "internalType": "int256",
          "name": "_price",
          "type": "int256"
        }
      ],
      "name": "updateAnswer",
      "outputs": [],
      "stateMutability": "nonpayable",
      "type": "function"
    },
    {
      "inputs": [
        {
          "internalType": "int256[]",
          "name": "_prices",
          "type": "int256[]"
        }
      ],
      "name": "updateAnswerBatch",
      "outputs": [],
      "stateMutability": "nonpayable",
      "type": "function"
    },
    {
      "inputs": [],
      "name": "version",
      "outputs": [
        {
          "internalType": "uint256",
          "name": "",
          "type": "uint256"
        }
      ],
      "stateMutability": "view",
      "type": "function"
    }
  ],
  "bytecode": "0x6080604052346103d557610d4380380380610019816103d9565b9283398101906080818303126103d55780516001600160401b0381116103d557810182601f820112156103d5578051906001600160401b0382116102bf5761006a601f8301601f19166020016103d9565b93828552602083830101116103d557815f9260208093018387015e84010152602081015160ff81168091036103d55760408201516060909201516001600160a01b038116908190036103d55780156103c2575f80546001600160a01b03198116831782556001600160a01b0316907f8be0079c531659141344cd1fd0a4f28419497f9722a3daafe3b4186f6b6457e09080a3600160035582516001600160401b0381116102bf57600154600181811c911680156103b8575b60208210146103a457601f8111610341575b506020601f82116001146102de57819293945f926102d3575b50508160011b915f199060031b1c1916176001555b6002805460ff1916919091179055600480546001600160501b03191660011790556006819055426007556040519060a08201906001600160401b038211838310176102bf576040918252600180845260208085019283524285850181815260608701918252608087018481525f94909452600590925294517f1471eb6eb2c5e789fc3de43f8ce62938c7d1836ec861730447e2ada8fd81017b80546001600160501b039283166001600160501b03199182161790915593517f1471eb6eb2c5e789fc3de43f8ce62938c7d1836ec861730447e2ada8fd81017c5590517f1471eb6eb2c5e789fc3de43f8ce62938c7d1836ec861730447e2ada8fd81017d5593517f1471eb6eb2c5e789fc3de43f8ce62938c7d1836ec861730447e2ada8fd81017e55517f1471eb6eb2c5e789fc3de43f8ce62938c7d1836ec861730447e2ada8fd81017f8054919094169116179091555161094490816103ff8239f35b634e487b7160e01b5f52604160045260245ffd5b015190505f8061014d565b601f1982169060015f52805f20915f5b81811061032957509583600195969710610311575b505050811b01600155610162565b01515f1960f88460031b161c191690555f8080610303565b9192602060018192868b0151815501940192016102ee565b60015f527fb10e2d527612073b26eecdfd717e6a320cf44b4afac2b0732d9fcbe2b7fa0cf6601f830160051c8101916020841061039a575b601f0160051c01905b81811061038f5750610134565b5f8155600101610382565b9091508190610379565b634e487b7160e01b5f52602260045260245ffd5b90607f1690610122565b631e4fbdf760e01b5f525f60045260245ffd5b5f80fd5b6040519190601f01601f191682016001600160401b038111838210176102bf5760405256fe6080806040526004361015610012575f80fd5b5f3560e01c908163313ce567146108185750806350d25bcd146107fb57806354fd4d50146107de578063668a0f02146107b8578063715018a6146107615780637284e416146106255780638205bf6a146106085780638da5cb5b146105e15780639a6fc8f51461057d578063a87a20ce14610453578063b5ab58dc146103fd578063b633620c146103a7578063bac01e9c14610206578063f2fde38b1461017d5763feaf968c146100c1575f80fd5b34610179575f366003190112610179576001600160501b03600454165f52600560205260405f20604051906100f582610835565b61017560806001600160501b03835416928385526001810154948560208201526002820154908160408201526001600160501b036004600385015494856060850152015416938491015260405195869586936080936001600160501b0393979692978460a088019916875260208701526040860152606085015216910152565b0390f35b5f80fd5b34610179576020366003190112610179576004356001600160a01b03811690819003610179576101ab6108e8565b80156101f3575f80546001600160a01b03198116831782556001600160a01b0316907f8be0079c531659141344cd1fd0a4f28419497f9722a3daafe3b4186f6b6457e09080a3005b631e4fbdf760e01b5f525f60045260245ffd5b346101795760203660031901126101795760043567ffffffffffffffff811161017957366023820112156101795780600401359067ffffffffffffffff8211610179576024810190602436918460051b010111610179576102656108e8565b5f5b82811061027057005b6001906004546001600160501b03610289818316610893565b1680916001600160501b031916176004556102a58286866108c4565b35600655426007556001600160501b036004816102c38589896108c4565b3593604051946102d286610835565b8186526020860190815260408601428152606087019142835260808801938085525f526005602052848060405f2099511616851989541617885551898801555160028701555160038601555116920191166001600160501b03198254161790556001600160501b0360045416604051428152817f0109fc6f55cf40689f02fbaad7af7fe7bbac8a3d2186600afc7d3e10cac6027160203393a36103768286866108c4565b357f0559884fd3a460db3073b7fc896cc77986f16e378210ded43186175bf646fc5f6020604051428152a301610267565b34610179576020366003190112610179576001600160501b036004358160045416811115806103f4575b6103da90610851565b165f5260056020526020600360405f200154604051908152f35b508015156103d1565b34610179576020366003190112610179576001600160501b0360043581600454168111158061044a575b61043090610851565b165f5260056020526020600160405f200154604051908152f35b50801515610427565b346101795760203660031901126101795760043561046f6108e8565b6004546001600160501b03610485818316610893565b1680916001600160501b0319161760045581600655426007556001600160501b03600481604051936104b685610835565b8085526020850186815260408601428152606087019142835260808801938085525f526005602052848060405f209951161685198954161788555160018801555160028701555160038601555116920191166001600160501b03198254161790556001600160501b036004541690604051428152827f0109fc6f55cf40689f02fbaad7af7fe7bbac8a3d2186600afc7d3e10cac6027160203393a37f0559884fd3a460db3073b7fc896cc77986f16e378210ded43186175bf646fc5f6020604051428152a3005b34610179576020366003190112610179576004356001600160501b038116809103610179576001600160501b0360045416811115806105d8575b6105c090610851565b5f52600560205260405f20604051906100f582610835565b508015156105b7565b34610179575f366003190112610179575f546040516001600160a01b039091168152602090f35b34610179575f366003190112610179576020600754604051908152f35b34610179575f366003190112610179576040515f90600154918260011c60018416938415610757575b60208210851461074357818452602084019490811561072a57506001146106d5575b50819003601f01601f191681019067ffffffffffffffff8211818310176106c15760409182528151928391602083525180918160208501528484015e5f828201840152601f01601f19168101030190f35b634e487b7160e01b5f52604160045260245ffd5b905060015f527fb10e2d527612073b26eecdfd717e6a320cf44b4afac2b0732d9fcbe2b7fa0cf65f905b82821061071457506020915082010183610670565b60018160209254838588010152019101906106ff565b60ff1916855250151560051b8201602001905083610670565b634e487b7160e01b5f52602260045260245ffd5b90607f169061064e565b34610179575f366003190112610179576107796108e8565b5f80546001600160a01b0319811682556001600160a01b03167f8be0079c531659141344cd1fd0a4f28419497f9722a3daafe3b4186f6b6457e08280a3005b34610179575f3660031901126101795760206001600160501b0360045416604051908152f35b34610179575f366003190112610179576020600354604051908152f35b34610179575f366003190112610179576020600654604051908152f35b34610179575f3660031901126101795760209060ff600254168152f35b60a0810190811067ffffffffffffffff8211176106c157604052565b1561085857565b60405162461bcd60e51b8152602060048201526013602482015272526f756e64206e6f7420617661696c61626c6560681b6044820152606490fd5b6001600160501b03166001600160501b0381146108b05760010190565b634e487b7160e01b5f52601160045260245ffd5b91908110156108d45760051b0190565b634e487b7160e01b5f52603260045260245ffd5b5f546001600160a01b031633036108fb57565b63118cdaa760e01b5f523360045260245ffdfea264697066735822122061b2f26df70a1ddf1fa7b2f0d25ce616d2da546c5ba17438ffe4cbca7b31dedc64736f6c634300081c0033",
  "linkReferences": {},
  "deployedLinkReferences": {},
  "immutableReferences": {},
  "inputSourceName": "project/contracts/MockPriceFeed.sol",
  "buildInfoId": "solc-0_8_28-1d8d44b193a92c1a8b24acc6417d572b9ebdcdc6"
}